:1000000009C019C018C017C016C015C014C013C04D
:1000100012C011C011241FBECFE9CDBF10E0A0E671
:10002000B0E0E8E9F0E002C005900D92A03AB10717
:10003000D9F719D02FC0E4CFCF93DF939FB7F894AF
:10004000C39ABB9AC39808B2E3E0C2E1DC2FDA9509
:10005000F1F780FB03F8E695879508BAB9F79FBFDB
:10006000DF91CF910895C0E6D0E08991882311F007
:10007000E3DFFBCF80916000DFDF80919900DCDF60
:100080002FEF82E597E0215080409040E1F700C0DB
:080090000000F6CFF894FFCF49
:1000980048656C6C6F7373736C736C736C736C738F
:1000A8006C736C736C736C736C736C736C736C7350
:1000B8006C736C736C736C736C73736C6C736C7340
:1000C8006C73646B727467686665737431320000B0
:00000001FF
